:020000020000FC
:100000000C943F000C94F02F0C94CB2F0C943030B8
:100010000C943E000C9450300C943E000C94103024
:100020000C943E000C943E000C943E000C943E0058
:100030000C943E000C94B62B0C94E32B0C943E00D5
:100040000C943E000C943E000C943E000C943E0038
:100050000C943E000C943E000C943E000C943E0028
:100060000C943E000C943E000C943E000C943E0018
:100070000C943E000C943E000C943E0018950FEF3B
:100080000DBF08E00EBFA4E6B0E00E949B370E94BF
:100090003B020E94F3360E9472020E948A0E00E028
:1000A00000936E0600E000936F0600E00093700678
:1000B00000E00093710600270093A00600E0009383
:1000C000AE0600E00093AF060FE000935A0600EA88
:1000D00000935B0600E000935C06E7EBF6E0E0933C
:1000E000B506F093B606E5E9F0E00E94F437009318
:1000F000B20678940E94AE37093011F40E94680D60
:100100000E940A1A06E006BB0E94952B0E94AF309F
:100110000E94FC010E94ED180E9475050E9458265D
:100120000E94C8050E9424250E94DF020E94C0048C
:100130000E94E72B0090AE061090AF06011481F0EC
:100140000091AE060093AF060090970600940092CF
:10015000A60600909D061090A606012800929D0616
:100160000090A2061090A30601240092A60600901B
:10017000970600940092A7060090A6061090A70686
:1001800001200092A60600909D061090A606012868
:1001900000929D060090A2061090A20601200092F7
:1001A000A30600919D0600232AF4002700939D06D4
:1001B0000E945217A0919706B091A106AB23AA23E3
:1001C0000AF4A2CF03B1009502950F70013021F01F
:1001D00000E00093A40698CF0091A4060395009335
:1001E000A4060091A406023309F48ECF90E0909308
:1001F0006F000E9406040E944E3282CF0E94483750
:1002000001E000936C0601E000936D0600E00093AE
:10021000680601E000936906EF93FF93E8E8F3E0D6
:100220000E946035FF91EF91ECE8F0E00E94D83732
:10023000BB270E94053500E0009368060090690620
:1002400009E0000E00926906EF93FF93E6E9F3E000
:100250000E946035FF91EF910E94D8370E940535CA
:1002600000E0009368060090690609E0000E009225
:100270006906EF93FF93E4EAF3E00E946035FF9193
:10028000EF910E94D8370E94053500E00093680680
:100290000090690609E0000E00926906EF93FF9353
:1002A000E2EBF3E00E946035FF91EF910E94D837B6
:1002B0000E94053500E0009368060090690609E099
:1002C000000E00926906EF93FF93E0ECF3E00E94CA
:1002D0006035FF91EF910E94D8370E94053500E00C
:1002E0000093680609E300936906EF93FF93EEEC31
:1002F000F3E00E946035FF91EF91E4EEF3E004E05B
:10030000019FE00DF11D0591009368060591009392
:100310006906059100936A06049100936B0600E05C
:1003200000936C060E947E340E94F3360E94BF3711
:10033000083009F40895043021F41A950AF414E001
:100340005DCF023029F41395153009F410E056CF33
:100350000130C9F4ECE8F0E001E0019FE00DF11D8F
:100360000E94D837C1E0D0E0E8E0F0E0B0E00E94C1
:10037000C122A02DB12DECE8F0E001E0019FE00DDD
:10038000F11D0E94DC373ACF526F6C6C2028416916
:100390006C2920203A0050697463682028456C65F8
:1003A00029203A005961772028527564292020209D
:1003B0003A005468726F74746C65202020203A00F3
:1003C0004155582020202020202020203A00424162
:1003D000434B2050524556204E45585420434841E7
:1003E0004E4745004D0055094D0955124D12551BFC
:1003F0004D1B55244D24552D00E0009340050093DE
:1004000041050093420530915A0640915B06509198
:100410005C06609140057091410580914205581736
:100420004707360759F030915A0640915B06415014
:10043000304030935A0640935B06089500918B0636
:1004400000231AF002E00093AE0600918C06002310
:100450001AF003E00093AE0600918D0600231AF017
:1004600004E00093AE0600918E0600231AF005E02A
:100470000093AE06089500E001B90AE004B90FEF59
:1004800007B902EF0AB90FEF00937E0005EF05B937
:100490000DE00BB900E00093800002E000938100C2
:1004A00000E00093820005E10093690007E00DBBC6
:1004B0000AE00093680001E00093730001E00093FC
:1004C0006C005D9A5C9A5E982B9A299AA4EFB1E031
:1004D0000E949B372B9829985E9AA4E6B0E00E9470
:1004E0009B3708950E94483701E000936C0601E0B5
:1004F00000936D0600E0009368060AE00093690629
:10050000EF93FF93EAE3F5E00E946035FF91EF91EE
:1005100000E00093680603E100936906EF93FF9300
:10052000E6E4F5E00E946035FF91EF910E94F3361A
:10053000A8EEB3E00E949B37089556657273696F09
:100540006E20312E3100427920526F6C6620527538
:100550006E61722042616B6B65000E94483701E05A
:1005600000936C0601E000936D0604E100936806B9
:1005700009E100936906EF93FF93E0EFFEE00E942C
:100580006035FF91EF9100E00093680609E3009366
:100590006906EF93FF93EEEFFEE00E946035FF9156
:1005A000EF910E94F3360E94BF37013009F00895A1
:1005B0000027E0E0F0E00E94FC370C943F0000E0F0
:1005C00000934005009341050093420530914E068B
:1005D00040914F0650915006609140057091410541
:1005E0008091420558174707360759F030914E065B
:1005F00040914F064150304030934E0640934F0695
:1006000003C000270093AD0600909706109099064E
:1006100001200092A6060090A6061090A1060120D7
:100620000092A6060091A6060023B2F530914B0673
:1006300040914C064150304030934B0640934C065D
:1006400000E000934005009341050093420530917E
:100650004B0640914C0650914D06609140057091BB
:10066000410580914205581747073607ACF403E06F
:1006700000934B0600E200934C0600E000934D0609
:100680000FEF0093AD0600E000934E0604E10093E7
:100690004F0600E0009350060090970610909806D1
:1006A00001240092A606009097061090970601205C
:1006B000009298060091A60600233AF400E0009309
:1006C0005D0600935E0600935F0600E00093400520
:1006D00000E00093410501E00093420530915D0682
:1006E00040915E0650915F06609140057091410512
:1006F00080914205580F471F361F30935D06409387
:100700005E0650935F060DE70093400500E00093FE
:10071000410500E00093420530915D0640915E0680
:1007200050915F06609140057091410580914205AE
:1007300058174707360764F00091400500935D069F
:100740000091410500935E060091420500935F060B
:100750000AE0009340050CEF0093410500E8009388
:10076000420530915D0640915E0650915F066091B2
:10077000400570914105809142055817470736079B
:10078000B4F13091600640916106415030403093A1
:1007900060064093610600E0009340050093410528
:1007A00000934205309160064091610650916206C7
:1007B00060914005709141058091420558174707A7
:1007C0003607ACF407E00093600600ED0093610685
:1007D00000E0009362060FEF0093AD0601E0009386
:1007E0004E0600E900934F0600E00093500600908B
:1007F000AD061090AC0601280092A6060091A60650
:10080000002312F029980895299A08950F93CF9301
:10081000299AC2E30E94A0372998CF910F91089599
:10082000402F2A2F3B2F0E94483701E000936C068F
:1008300004E000936D06203049F00AE30093680657
:1008400000E00093690602E00E946635022F0B5F0C
:10085000041749F00AE30093680602E3009369066F
:1008600003E00E94663501E000936D0608E0009306
:10087000690615E0FE0104E1029FE00DF11D00E0B4
:1008800000936806A4E105910E946635AA95D9F700
:100890000090690608E0000E009269061A9579F743
:1008A00008E0039F002D095F00936906075F00932E
:1008B0006B0600E0009368060FE700936A0600E00D
:1008C00000936C060E947E3400E00093680609E302
:1008D00000936906EF93FF93EAE6F9E00E94603522
:1008E000FF91EF910E94F336AEE10E94AE370030E7
:1008F00011F0AA95D1F70E94AE370030E1F30E94C3
:100900000604083019F4AA2788942BC0043061F437
:10091000303019F03A950C94B404203019F02A952F
:100920000C94B4040C94B404023071F4343019F013
:1009300033950C94B404042F0550201719F0239517
:100940000C94B4040C94B404013071F40E94483740
:100950000E94F3360E94AE370030E1F7A22FA30FBA
:100960000894C22FD32F08955ECF4241434B2020DD
:100970005550202020444F574E20454E544552009C
:100980003091790540917A0550917B0560917C0505
:1009900070917D0580917E05581B470B360B309377
:1009A0009105409392055093930560919105709144
:1009B00092058091930508E06595779587950A954E
:1009C000D9F7801F701F601F609391057093920587
:1009D0008093930530917C0540917D0550917E0573
:1009E000609191057091920580919305580F471F72
:1009F000361F30937C0540937D0550937E053091E2
:100A00002106409122065091230660917C05709149
:100A10007D0580917E05581B470B360B3093910561
:100A200040939205509393050AF45BC06091910541
:100A3000709192058091930502E065957795879571
:100A40000A95D9F7801F701F601F609391057093FE
:100A500092058093930500E00093400500E1009328
:100A6000410500E0009342053091910540919205C7
:100A70005091930560914005709141058091420528
:100A800058174707360764F0009140050093910519
:100A90000091410500939205009142050093930552
:100AA0003091420640914306509144066091910571
:100AB0007091920580919305580F471F361F309310
:100AC00042064093430650934406B0914206A091DB
:100AD0004306D0914406AA2322F00FEF0093AC0600
:100AE000089500270093AC0608950091970600230F
:100AF0006AF1309163064091640641503040309372
:100B000063064093640600E00093400500934105AE
:100B1000009342053091630640916406509165064A
:100B20006091400570914105809142055817470733
:100B3000360764F40FEF00939D0601E0009363060F
:100B400000E90093640600E00093650600909E06AD
:100B50001090A00601200092A60600909E06009428
:100B60000092A8060090A8061090A206012000920C
:100B7000A7060090A6061090A706012800929F06DF
:100B800000919706002312F02B9808952B9A089550
:100B900010916D0520916E0530916F0540911B06F7
:100BA00050911C0660911D060E9408387093400504
:100BB000809341052092420500911E060093120683
:100BC00000911F060093130600912006009314065F
:100BD00030914005409141055091420560911206C7
:100BE000709113068091140658174707360764F072
:100BF00000911206009340050091130600934105F1
:100C0000009114060093420560911206709113063C
:100C100080911406552744273327581B470B360B62
:100C200030931206409313065093140630914005FA
:100C30004091410550914205609112067091130652
:100C40008091140658174707360764F4009112067E
:100C5000009340050091130600934105009114068E
:100C60000093420530914C0540914D0550914E0541
:100C7000609140057091410580914205581B470BDA
:100C8000360B30934C0540934D0550934E05089517
:100C9000C8E3DDE0A0917106B091700606E10E9404
:100CA0001004C0937106D093700608F008950E9456
:100CB000483701E000936C0601E000936D0604E103
:100CC0000093680609E100936906EF93FF93E0EF54
:100CD000FEE00E946035FF91EF9100E0009368060E
:100CE00009E300936906EF93FF93EEEFFEE00E94A5
:100CF0006035FF91EF910E94F3360E94BF370130BB
:100D000009F0C6CF299AE4E1FFE000E40A9FE00D74
:100D1000F11DDF01C4E0D0E010E4FD010491FE010B
:100D20000E94FC37119621961A95B9F729980E94CE
:100D30000A1A0E94360BACCF53696E676C65436F1D
:100D40007074657220324D203253202053696E67D3
:100D50006C65436F7074657220314D2034532020D0
:100D60004475616C436F70746572202020202020D0
:100D700020202020547269436F70746572202020F7
:100D80002020202020202020593620202020202014
:100D90002020202020202020202020205175616448
:100DA000726F436F70746572202B206D6F646520C5
:100DB00051756164726F436F707465722078206D35
:100DC0006F646520583820202020202020202020FB
:100DD000202B206D6F646520583820202020202093
:100DE000202020202078206D6F6465204865786180
:100DF000436F707465722020202B206D6F64652016
:100E000048657861436F7074657220202078206D8A
:100E10006F6465204F63746F436F70746572202038
:100E2000202B206D6F6465204F63746F436F707467
:100E3000657220202078206D6F6465204836202060
:100E400020202020202020202020202020202020A2
:100E50004838202020202020202020202020202052
:100E60002020202056362020202020202020202036
:100E70002020202020202020563820202020202024
:100E80002020202020202020202020204169727056
:100E90006C616E652031532041696C65726F6E2004
:100EA000416972706C616E652032532041696C65D6
:100EB000726F6E20466C79696E672057696E672085
:100EC00020202020202020205934202020202020D5
:100ED000202020202020202020202020562D54615A
:100EE000696C20202020202020202020202020206D
:100EF00041726520796F7520737572653F004341BB
:100F00004E43454C2020202020202020202020203F
:100F10005945530064000064000300006400009C15
:100F200000030000006400003200000000006400C4
:100F3000320000000000000000000000000000007F
:100F400000000000000000000000000000000000A1
:100F50000000000064000000000300000064006462
:100F6000320000000000646432000000009C006455
:100F70003200000000009C6432000000000000000D
:100F80000000000000000000000000000000000061
:100F9000000000006464000000030000649C000086
:100FA00000030000000064640000000000009C6476
:100FB0000000000000000000000000000000000031
:100FC0000000000000000000000000000000000021
:100FD0000000000064A9320000030000645732FFE3
:100FE0000003000064009C00000300000000006497
:100FF00032000000000000000000000000000000BF
:1010000000000000000000000000000000000000E0
:101010000000000064A932640003000064A9329C4F
:101020000003000064573264000300006457329CE0
:101030000003000064009C640003000064009C9CAA
:10104000000300000000000000000000000000009D
:101050000000000064006464000300006464009CFD
:101060000003000064009C6400030000649C009C7A
:10107000000300000000000000000000000000006D
:101080000000000000000000000000000000000060
:101090000000000064B94764000300006447479CF7
:1010A000000300006447B9640003000064B9B99C00
:1010B000000300000000000000000000000000002D
:1010C0000000000000000000000000000000000020
:1010D0000000000064006464000300006400649C7D
:1010E0000003000064640064000300006464009C6A
:1010F0000003000064009C640003000064009C9CEA
:1011000000030000649C006400030000649C009CD9
:101110000003000064B947640003000064B9479C01
:101120000003000064474764000300006447479CD5
:10113000000300006447B964000300006447B99CE1
:101140000003000064B9B9640003000064B9B99CED
:101150000003000064006464000300006457329CD4
:10116000000300006457CE640003000064009C9CF0
:101170000003000064A9CE640003000064A9329C4F
:10118000000300000000000000000000000000005C
:101190000000000064325764000300006464009C97
:1011A000000300006432A9640003000064CEA99C1F
:1011B00000030000649C00640003000064CE579CA0
:1011C000000300000000000000000000000000001C
:1011D0000000000064006464000300006447479C52
:1011E0000003000064640064000300006447B99CCD
:1011F0000003000064009C640003000064B9B99C13
:1012000000030000649C00640003000064B9479C74
:101210000003000064265C6400030000645C269CFC
:1012200000030000645CDA64000300006426A49CF0
:101230000003000064DAA4640003000064A4DA9CE4
:101240000003000064A426640003000064DA5C9CD0
:101250000003000064474764000300006447009CEB
:10126000000300006447B9640003000064B9B99C3E
:101270000003000064B900640003000064B9479CE7
:10128000000300000000000000000000000000005B
:101290000000000064474764000300006447189C96
:1012A000000300006447E864000300006447B99C41
:1012B0000003000064B9B9640003000064B9E89C4D
:1012C0000003000064B918640003000064B9479C7F
:1012D0000003000064644764000300006447009C4E
:1012E00000030000642AB9640003000064D6B99CBE
:1012F0000003000064B9006400030000649C479C84
:1013000000030000000000000000000000000000DA
:101310000000000064644764000300006451189CEE
:1013200000030000643DE86400030000642AB99CE7
:101330000003000064D6B9640003000064C3E89CA5
:101340000003000064AF186400030000649C479C25
:1013500000030000640000000003000000640000BF
:101360003200000000006400320000000000006451
:10137000320000000000000000000000000000003B
:10138000000000000000000000000000000000005D
:101390000000000064000000000300000064000082
:1013A0003200000000640000320000000000640011
:1013B0003200000000000064320000000000000065
:1013C000000000000000000000000000000000001D
:1013D0000000000064000000000300000032320042
:1013E000320000000032CE00320000000000000099
:1013F00000000000000000000000000000000000ED
:1014000000000000000000000000000000000000DC
:101410000000000064B94764000300006447479C73
:101420000003000064009C640003000064009C9CB6
:1014300000030000000000000000000000000000A9
:10144000000000000000000000000000000000009C
:101450000000000064B9470000030000644747FF34
:10146000000300007800A664000300007800A69C3A
:101470000003000000000000000000000000000069
:10148000000000000000000000000000000000005C
:10149000000000000E94483701E000936C0601E064
:1014A00000936D0600E00093680601E00093690672
:1014B000EF93FF93EEEFF5E10E946035FF91EF911E
:1014C000E2E7F0E00E94CA370E94053500E0009391
:1014D00068060090690609E0000E00926906EF9325
:1014E000FF93E8E0F6E10E946035FF91EF910E94E2
:1014F000CA370E94053500E000936806009069062F
:101500000CE0000E00926906EF93FF93E2E1F6E132
:101510000E946035FF91EF910E94CA370E94053505
:1015200000E0009368060090690609E0000E009252
:101530006906EF93FF93E4E2F6E10E946035FF91C4
:10154000EF910E94CA370E94053500E000936806BB
:1015500009E300936906EF93FF93E6E3F6E10E9447
:101560006035FF91EF91ECE4F6E104E0019FE00DBE
:10157000F11D059100936806059100936906059198
:1015800000936A06049100936B0600E000936C06DA
:101590000E947E340E94F3360E94BF37083009F45F
:1015A0000895043021F41A950AF413E073CF023041
:1015B00029F41395143009F410E06CCF0130F1F4E4
:1015C000E2E7F0E002E0019FE00DF11DEF93FF93F1
:1015D0000E94CA37ECE5F6E104E0019FE00DF11D41
:1015E000C591D59105901590E02DF12D0E94C12255
:1015F000A02DB12DFF91EF910E94D1374BCF5020FC
:101600004761696E20203A0050206C696D69742032
:101610003A00414343205472696D20526F6C6C2034
:10162000203A0000414343205472696D2050697490
:101630006368203A00004241434B205052455620F7
:101640004E455854204348414E47450035004F0908
:1016500035094F125F157F1E5F1E7F270000007D3A
:101660000000007D18FCE80318FCE80344240E94F5
:10167000483700E00093680600E00093690601E047
:1016800000936D0601E000936C06EF93FF93ECE886
:10169000FAE10E946035FF91EF914420A1F4EF93AD
:1016A000FF93E4E9FAE10E946035FF91EF910FEFBB
:1016B000602E08E0802E55240E94980B53948A9443
:1016C0008820D1F709C0542C5A94A42DBB270E941E
:1016D000053566240E94980B01E000936D0601E039
:1016E00000936C0600E00093680609E30093690626
:1016F000EF93FF93E0EAFAE10E946035FF91EF91EA
:101700000E94F3360E94BF37083009F40895043070
:1017100031F4439409E0401609F44424A8CF023080
:1017200031F44A94442012F408E0402EA0CF9FCF19
:10173000E0E0F5E008E0059DE00DF11D01E000931B
:101740006C060FEF702EDD27A181BB27AA2312F4B0
:10175000DFEFBFEFB093C705A093C805D093C905CD
:1017600000E000934005009341050093420530914D
:10177000C7054091C8055091C90560914005709119
:1017800041058091420558174707360709F077242D
:1017900000E00093400500E00093410500E4009361
:1017A00042051091C7052091C8053091C9054091A7
:1017B000400550914105609142050E9408387093A0
:1017C000C7058093C8052092C90500E00093400535
:1017D00000E60093410500E0009342053091C70503
:1017E0004091C8055091C90560914005709141052F
:1017F00080914205580F471F361F3093C70540930D
:10180000C8055093C905B091C705A091C805D091EE
:10181000C905A0936806DD27A281BB27AA2312F47D
:10182000DFEFBFEFB093C705A093C805D093C905FC
:1018300000E000934005009341050093420530917C
:10184000C7054091C8055091C90560914005709148
:1018500041058091420558174707360709F077245C
:101860000FEF009340050FEF0093410500EC00934C
:1018700042051091C7052091C8053091C9054091D6
:10188000400550914105609142050E9408387093CF
:10189000C7058093C8052092C90500E00093400564
:1018A00000E20093410500E0009342053091C70536
:1018B0004091C8055091C90560914005709141055E
:1018C00080914205580F471F361F3093C70540933C
:1018D000C8055093C905B091C705A091C805D0911E
:1018E000C905A0936906DD27A081BB27AA2312F4AE
:1018F000DFEFBFEFB093C705A093C805D093C9052C
:1019000000E00093400500934105009342053091AB
:10191000C7054091C8055091C90560914005709177
:1019200041058091420558174707360709F077248B
:10193000A381AA2309F07724772092F466200AF481
:10194000089502E4009368060BE100936906EF93A3
:10195000FF93E4E8FAE10E946035FF91EF9108956A
:10196000A581A0FD11C0662072F002E40093680614
:101970000BE100936906EF93FF93E8E9FAE10E9417
:101980006035FF91EF91089500E600936A0600E24A
:1019900000936B060E941F36009168060450009366
:1019A00068060091690607500093690604E00093F9
:1019B0006D0604E0A381AA230AF005E00E946635C3
:1019C000009168060E50009368060090690605E0D5
:1019D000000E0092690600E000936D0600E000939F
:1019E0006C06052D0E94663566200AF44AC001E0A7
:1019F00000936D0601E000936C0600E0009368061A
:101A00000FE000936906EF93FF93E4EBFAE10E9485
:101A10006035FF91EF9100E00093680608E10093C4
:101A20006906EF93FF93EEEBFAE10E946035FF91B8
:101A3000EF9100E00093680601E200936906EF93DE
:101A4000FF93E8ECFAE10E946035FF91EF9100E02E
:101A5000009368060AE200936906A381AA234AF06C
:101A6000EF93FF93ECEAFAE10E946035FF91EF916A
:101A700008C0EF93FF93E0EBFAE10E946035FF911D
:101A8000EF910895556E757365642E004D6F746FF8
:101A9000723A2000414C4C00536572766F2E000064
:101AA0004241434B20204E4558540000435700000C
:101AB00043435700446972656374696F6E007365D0
:101AC000656E2066726F6D0061626F76653A000028
:101AD0000E94483701E000936C0601E000936D0618
:101AE0000FE00093680609E100936906EF93FF9306
:101AF000E2E0FDE10E946035FF91EF9100E000938C
:101B000068060E94F33600E00093910600E000931F
:101B1000920601E00093940608E0009393060FEF0D
:101B2000009397060AEF009390062B9A06E006BBF7
:101B30000E94952B0E94AF3000270093990600E089
:101B40000093400508EC0093410500E00093420536
:101B500030914C0540914D0550914E0560914005E6
:101B60007091410580914205581B470B360B30930D
:101B70004005409341055093420500E00093120652
:101B800000931306009314063091400540914105DF
:101B900050914205609112067091130680911406CF
:101BA0005817470736073CF400E0009340050093C0
:101BB00041050093420500E00093120606E0009301
:101BC000130600E000931406109140052091410592
:101BD000309142054091120650911306609114060F
:101BE0000E94083870934005809341052092420579
:101BF00000E00093120608E5009313060CEC009336
:101C00001406309140054091410550914205609184
:101C100012067091130680911406580F471F361F45
:101C20003093400540934105509342050091400593
:101C30000093CA05009141050093CB050091420530
:101C40000093CC05009140050093CD05009141051E
:101C50000093CE05009142050093CF050091400509
:101C60000093D005009141050093D10500914205F4
:101C70000093D205009140050093D30500914105E2
:101C80000093D405009142050093D50500914005CD
:101C90000093D605009141050093D70500914205B8
:101CA0000093D805009140050093D90500914105A6
:101CB0000093DA05009142050093DB050091400591
:101CC0000093DC05009141050093DD05009142057C
:101CD0000093DE05009140050093DF05009141056A
:101CE0000093E005009142050093E1050E94E72B77
:101CF00003B1009502950F70093009F419CF2B98A4
:101D0000089543616C6962726174696E672045531E
:101D100043730000E0E0F0E00E94F43731960931AF
:101D200081F40E94F4373196033059F40E94F4375D
:101D30003196033731F40E94F4373196023009F4BA
:101D40000895A4E0B0E0C8ECDEE110E4FE010491E7
:101D5000FD010E94FC37119621961A95B9F7A4E46B
:101D6000B0E0C8E0DFE118E1FE010491FD010E944E
:101D7000FC37119621961A95B9F7A4E8B0E0C0E2B5
:101D8000DFE118E0FE010491FD010E94FC3711968D
:101D900021961A95B9F7AAE0B0E0EAE7F0E00E94D0
:101DA000D137A4E2B0E0E0E7F0E00E94D137A8E24A
:101DB000B0E0E2E7F0E00E94D137A4E1B0E0E4E770
:101DC000F0E00E94D137A0E0B0E0ECE7F0E00E9444
:101DD000D137AEE1B0E0EEE7F0E00E94D137A0E00D
:101DE000B0E0E0E8F0E00E94D137A0E0B0E0E2E847
:101DF000F0E00E94D137A0E0B0E0E6E7F0E00E941A
:101E0000D137A0E0B0E0E8E7F0E00E94D137A1E0F0
:101E1000B0E0ECE8F0E00E94DC37A2E0B0E0EDE8F2
:101E2000F0E00E94DC37A3E0B0E0EEE8F0E00E94D2
:101E3000DC37A4E0B0E0EFE8F0E00E94DC37A5E09A
:101E4000B0E0E0E9F0E00E94DC370FEFA02FE1E91D
:101E5000F0E00E94DC370FEFA02FE2E9F0E00E94F3
:101E6000DC370FEFA02FE3E9F0E00E94DC370FEF43
:101E7000A02FE4E9F0E00E94DC37AA27E6E9F0E0D1
:101E80000E94DC37AA27E5E9F0E00E94DC37E0E0B9
:101E9000F0E009E10E94FC37319603E00E94FC3734
:101EA000319603E70E94FC37319602E00E94FC372E
:101EB000319615E00E940604C0E00E94A0371A95F2
:101EC000C9F70E940D3308956400646400030000A4
:101ED0006464009C0003000064009C640003000034
:101EE000649C009C00030000000000000000000053
:101EF00000000000000000000000000000000000E2
:101F0000000000000000000032006400190014000E
:101F100032006400190014003200140032000A007C
:101F20001E001E0032005A000E94483701E0009354
:101F30006C0601E000936D0600E00093680601E086
:101F400000936906EF93FF93E0EDF6E20E9460359F
:101F5000FF91EF9100E0009368060090690609E0A8
:101F6000000E00926906EF93FF93E6EEF6E20E9400
:101F70006035FF91EF9100E00093680600906906DC
:101F800009E0000E00926906EF93FF93EAEFF6E294
:101F90000E946035FF91EF9100E000936806009089
:101FA000690609E0000E00926906EF93FF93EAE0EC
:101FB000F7E20E946035FF91EF9100E00093680620
:101FC0000090690609E0000E00926906EF93FF9306
:101FD000E0E2F7E20E946035FF91EF9100E00093AC
:101FE00068060090690609E0000E00926906EF930A
:101FF000FF93E2E3F7E20E946035FF91EF9100E08A
:102000000093680609E300936906EF93FF93EAEBF8
:10201000F6E20E946035FF91EF910E94F3360E9434
:10202000BF370130E1F7A5E3B0E00E94483700E098
:102030000093680601E000936906EF93FF93E8E4DC
:10204000F7E20E946035FF91EF9100E0009368068F
:102050000090690609E0000E00926906EF93FF9375
:10206000E6E5F7E20E946035FF91EF9100E0009312
:1020700068060090690609E0000E00926906EF9379
:10208000FF93E6E6F7E20E946035FF91EF9100E0F2
:10209000009368060090690609E0000E0092690648
:1020A000EF93FF93E0E7F7E20E946035FF91EF9135
:1020B00000E0009368060090690609E0000E0092B7
:1020C0006906EF93FF93EEE7F7E20E946035FF9118
:1020D000EF9100E0009368060090690609E0000EA9
:1020E00000926906EF93FF93ECE8F7E20E946035F7
:1020F000FF91EF9108E70093680601E000936906FD
:102100000A2F0E94663505E50093680609E0B09F36
:10211000002D065F00936906EF93FF93EAE9F7E26B
:102120000E946035FF91EF910E94F336D7E0C0E046
:102130000E94A037DA95D9F7B395B53009F075CF7D
:10214000B0E0AA95AF3209F070CF0E94483709E19C
:102150000093680609E100936906EF93FF93EEE9A7
:10216000F7E20E946035FF91EF910E94F336C0E0E4
:102170000E94A037E0E100E000935E0500935F0558
:102180000093600500E000936105009362050093F1
:10219000630500E000936405009365050093660500
:1021A00000E000937005009371050093720500E054
:1021B00000937305009374050093750500E0009388
:1021C000760500937705009378050E942F343091AF
:1021D0005E0540915F0550916005609155057091D5
:1021E000560580915705580F471F361F30935E05DF
:1021F00040935F0550936005309161054091620501
:1022000050916305609158057091590580915A0568
:10221000580F471F361F3093610540936205509356
:1022200063053091640540916505509166056091A4
:102230005B0570915C0580915D05580F471F361F47
:1022400030936405409365055093660530917005A1
:102250004091710550917205609167057091680514
:1022600080916905580F471F361F309370054093C2
:10227000710550937205309173054091740550912A
:10228000750560916A0570916B0580916C05580F1A
:10229000471F361F3093730540937405509375059F
:1022A00030917605409177055091780560916D05E4
:1022B00070916E0580916F05580F471F361F309340
:1022C00076054093770550937805C4E60E94A037C1
:1022D000EA9509F07ACF60915E0570915F05809173
:1022E000600504E06595779587950A95D9F7801F75
:1022F000701F601F60935E0570935F05809360059B
:1023000060916105709162058091630504E06595B7
:10231000779587950A95D9F7801F701F601F609386
:102320006105709362058093630560916405709107
:1023300065058091660504E06595779587950A9512
:10234000D9F7801F701F601F609364057093650547
:10235000809366056091700570917105809172059A
:1023600004E06595779587950A95D9F7801F701FCA
:10237000601F609370057093710580937205609182
:102380007305709174058091750504E065957795E6
:1023900087950A95D9F7801F701F601F609373059A
:1023A000709374058093750560917605709177053B
:1023B0008091780504E06595779587950A95D9F71A
:1023C000801F701F601F6093760570937705809360
:1023D0007805D8E2C0E00E94A037DA95D9F70E94CC
:1023E00048370FEF0093A50600E00093680600E071
:1023F00000936906EF93FF93E0E1F8E60E946035F1
:10240000FF91EF91B0916105A0916205D0916305B4
:102410000E9405350E94C43300E00093680609E07D
:1024200000936906EF93FF93EAE1F8E60E946035B6
:10243000FF91EF91B0915E05A0915F05D09160058D
:102440000E9405350E94C43300E00093680602E153
:1024500000936906EF93FF93E4E2F8E60E9460358B
:10246000FF91EF91B0916405A0916505D09166054B
:102470000E9405350E94C43300E0009368060BE11A
:1024800000936906EF93FF93EEE2F8E60E94603551
:10249000FF91EF91B0917005A0917105D0917205F7
:1024A0000E9405350E94E63300E00093680604E2CE
:1024B00000936906EF93FF93E8E3F8E60E94603526
:1024C000FF91EF91B0917305A0917405D0917505BE
:1024D0000E9405350E94E63300E0009368060DE295
:1024E00000936906EF93FF93E2E4F8E60E946035FB
:1024F000FF91EF91B0917605A0917705D091780585
:102500000E9405350E94E63300E00093680609E367
:1025100000936906EF93FF93EAEBF6E20E946035C1
:10252000FF91EF910E94F3360091A5060023E2F59A
:10253000EDE5F0E0B0915E05A0915F05D0916005FA
:102540000E94EA37B0916105A0916205D0916305C0
:102550000E94EA37B0916405A0916505D0916605A7
:102560000E94EA37B0917005A0917105D091720573
:102570000E94EA37B0917305A0917405D09175055A
:102580000E94EA37B0917605A0917705D091780541
:102590000E94EA37E6E9F0E00FEF002F0E94FC37D7
:1025A00000E00093AE0608C0E6E9F0E000270E94D4
:1025B000FC3701E00093AE060E94BF370130E1F71F
:1025C0000E9448370091A50600230AF453C000E09A
:1025D0000093680601E000936906EF93FF93EEEA2B
:1025E000F7E20E946035FF91EF9100E000936806EA
:1025F0000090690602E1000E00926906EF93FF93D6
:10260000E2ECF7E20E946035FF91EF9100E0009369
:1026100068060090690609E0000E00926906EF93D3
:10262000FF93E6EDF7E20E946035FF91EF9100E045
:10263000009368060090690609E0000E00926906A2
:10264000EF93FF93EAEEF7E20E946035FF91EF917E
:1026500000E0009368060090690609E0000E009211
:102660006906EF93FF93EEEFF7E20E946035FF916A
:10267000EF910EC000E00093680609E1009369063F
:10268000EF93FF93E6E0F8E20E946035FF91EF914F
:1026900000E00093680609E300936906EF93FF9357
:1026A000EAEBF6E20E946035FF91EF910E94F3366B
:1026B0000E94BF370130E1F708952020202020201C
:1026C00020202020202020434F4E54494E554500C5
:1026D000506C616365207468652061697263726122
:1026E0006674206F6E0061206C6576656C20737572
:1026F000726661636520616E640070726573732039
:10270000434F4E54494E55452E005468652046436C
:102710002077696C6C207468656E2077616974003D
:10272000352073656320746F206C65742074686550
:102730000000616972637261667420736574746C01
:102740006520646F776E2E0020202020206C64614D
:102750002023243335006C6F6C3A2073746120247D
:1027600030343237000020202020207365630000C1
:102770002020202020736263202324303100202079
:10278000202020636D70202324326600202020202A
:1027900020626E65206C6F6C00003C2D2D00436143
:1027A0006C6962726174696E672E2E2E000043613F
:1027B0006C6962726174696F6E206661696C6564D0
:1027C0002E004D616B6520737572652074686520FD
:1027D0006169722D00006372616674206973206CF8
:1027E0006576656C20616E64000073746174696F56
:1027F0006E6172792C20616E642074727900616759
:1028000061696E2E000043616C6962726174696F68
:102810006E20737563636565646564000E94483764
:1028200001E000936C0601E000936D0600E0009368
:10283000680601E000936906EF93FF93EAE2FAE28B
:102840000E946035FF91EF91E1E9F0E00E94D837F6
:10285000AA234AF4EF93FF93E6E9FAE20E94603577
:10286000FF91EF9108C0EF93FF93ECE9FAE20E9429
:102870006035FF91EF9100E0009368060AE0009355
:102880006906EF93FF93EAE3FAE20E946035FF9155
:10289000EF910E94D837AA234AF4EF93FF93E6E919
:1028A000FAE20E946035FF91EF9108C0EF93FF9329
:1028B000E2E9FAE20E946035FF91EF9100E00093B7
:1028C000680603E100936906EF93FF93EAE4FAE2F6
:1028D0000E946035FF91EF910E94D837AA234AF4F5
:1028E000EF93FF93E0EAFAE20E946035FF91EF91E7
:1028F00008C0EF93FF93E4EAFAE20E946035FF918B
:10290000EF9100E0009368060CE100936906EF93F5
:10291000FF93ECE5FAE20E946035FF91EF910E948F
:10292000D837AA234AF4EF93FF93E0EAFAE20E9431
:102930006035FF91EF9108C0EF93FF93E4EAFAE26C
:102940000E946035FF91EF9100E00093680605E278
:1029500000936906EF93FF93ECE6FAE20E9460357C
:10296000FF91EF910E94D837AA234AF4EF93FF9387
:10297000E0EAFAE20E946035FF91EF9108C0EF9320
:10298000FF93E4EAFAE20E946035FF91EF9100E0E4
:102990000093680609E300936906EF93FF93ECE761
:1029A000FAE20E946035FF91EF91E8EAFAE204E072
:1029B000019FE00DF11D05910093680605910093BC
:1029C0006906059100936A06049100936B0600E086
:1029D00000936C060E947E340E94F3360E94BF373B
:1029E000083009F40895043021F41A950AF414E02B
:1029F00015CF023029F41395153009F410E00ECFED
:102A0000013091F4E1E9F0E001E0019FE00DF11DFA
:102A10000E94D83700E8A027E1E9F0E001E0019F3B
:102A2000E00DF11D0E94DC37F9CE53656C662D4C2C
:102A30006576656C20203A20000041726D696E67F2
:102A40002020202020203A2000004C696E6B20526C
:102A50006F6C6C2050697463683A20004175746F24
:102A60002044697361726D203A2000004350504D3C
:102A700020456E61626C65643A2000004241434B20
:102A80002050524556204E455854204348414E4709
:102A900045004F6E0000537469636B004155580048
:102AA000596573004E6F000053007209530972128A
:102AB00064127A1B531B68245324682D0E944837E4
:102AC00001E000936C0601E000936D0600E00093C6
:102AD000680601E000936906EF93FF93E8E3FCE2E8
:102AE0000E946035FF91EF91EAE7F0E00E94CA375B
:102AF0000E94053500E0009368060AE0009369062D
:102B0000EF93FF93EAE4FCE20E946035FF91EF91BE
:102B10000E94CA370E94053500E00093680603E171
:102B200000936906EF93FF93ECE5FCE20E946035A9
:102B3000FF91EF910E94CA370E94053500E0009393
:102B400068060CE100936906EF93FF93EEE6FCE262
:102B50000E946035FF91EF910E94CA370E940535AF
:102B600000E00093680605E200936906EF93FF9387
:102B7000E0E8FCE20E946035FF91EF910E94CA37C5
:102B80000E94053500E00093680609E3009369069A
:102B9000EF93FF93E2E9FCE20E946035FF91EF9131
:102BA000E8EAFCE204E0019FE00DF11D05910093CD
:102BB0006806059100936906059100936A060491E1
:102BC00000936B0600E000936C060E947E340E9426
:102BD000F3360E94BF37083009F40895043021F419
:102BE0001A950AF414E06ACF023029F413951530CF
:102BF00009F410E063CF0130F1F4EAE7F0E002E01D
:102C0000019FE00DF11DEF93FF930E94CA37ECEB9B
:102C1000FCE204E0019FE00DF11DC591D591059006
:102C20001590E02DF12D0E94C122A02DB12DFF9114
:102C3000EF910E94D13742CF4D696E696D756D205D
:102C40007468726F74746C653A004865696768747B
:102C50002044616D70656E696E673A00486569670A
:102C6000687420442E204C696D6974203A00416CD0
:102C700061726D20312F313020766F6C74733A00A1
:102C8000536572766F2066696C746572202020200F
:102C90003A004241434B2050524556204E4558542D
:102CA000204348414E47450065007F0965097F1272
:102CB00065127F1B651B7F2465247F2D0000140097
:102CC0000000F40100001E000000007D0000640010
:102CD0000E94483701E000936C0601E000936D0606
:102CE00000E00093680601E000936906EF93FF930C
:102CF000E8E3FEE20E946035FF91EF9100E000936F
:102D000068060EE000936906EF93FF93E6E4FEE2A7
:102D10000E946035FF91EF91E4E8F0E00E94CA372D
:102D20000E94053500E00093680607E100936906FC
:102D3000EF93FF93E4E5FEE20E946035FF91EF918F
:102D40000E94CA370E94053500E00093680600E241
:102D500000936906EF93FF93E2E6FEE20E9460357E
:102D6000FF91EF910E94CA370E94053500E0009361
:102D7000680609E200936906EF93FF93E0E7FEE23D
:102D80000E946035FF91EF910E94CA370E9405357D
:102D900000E00093680609E300936906EF93FF9350
:102DA000EEE7FEE20E946035FF91EF91E4E9FEE27A
:102DB00004E0019FE00DF11D059100936806059167
:102DC00000936906059100936A06049100936B06CF
:102DD00000E000936C060E947E340E94F3360E944D
:102DE000BF37083009F40895043021F41A950AF425
:102DF00013E06ECF023029F41395143009F410E07B
:102E000067CF0130C1F4E4E8F0E002E0019FE00D9B
:102E1000F11D0E94CA37C0E0D0E0E0E0FDE70E946B
:102E2000C122A02DB12DE4E8F0E002E0019FE00D09
:102E3000F11D0E94D1374CCF537469636B205363EB
:102E4000616C696E6700526F6C6C202841696C2957
:102E500020203A0050697463682028456C65292059
:102E60003A005961772028527564292020203A00C1
:102E70005468726F74746C65202020203A004241BF
:102E8000434B2050524556204E455854204348410C
:102E90004E4745004D0D6E164D166E1F4D1F6E2888
:102EA0004D286E310FEF0093B1060E94483701E0C4
:102EB00000936C0603E000936D06009197060023D3
:102EC0007AF402E20093680606E100936906EF9344
:102ED000FF93E0E0F1E30E946035FF91EF910EC0B7
:102EE00006E20093680600E000936906EF93FF9303
:102EF000EAEFF0E30E946035FF91EF910090A106A8
:102F000000940092A606009097061090A606012055
:102F10000092A6060090970600940092A7060090E3
:102F2000A6061090A70601280092A6060091A60604
:102F300000238AF400E00093680609E30093690621
:102F400001E000936D06EF93FF93E4EEF0E30E943F
:102F50006035FF91EF910091970600230AF4BCC001
:102F600000E00093680601E10093690601E0009328
:102F70006D06EF93FF93E6E0F1E30E946035FF9169
:102F8000EF9100919F0600234AF0EF93FF93EAE14F
:102F9000F1E30E946035FF91EF9108C0EF93FF933A
:102FA000E6E1F1E30E946035FF91EF9100E00093CC
:102FB00068060BE100936906EAECF1E30091AE06C6
:102FC000000FE00F0027F01FA591B491FD010E94B2
:102FD000603500E00093400506E00093410500EEF7
:102FE000009342051091790520917A0530917B0577
:102FF0004091400550914105609142050E9408387A
:1030000070934005809341052092420560914005F0
:10301000709141058091420508E065957795879507
:103020000A95D9F7801F701F601F60934005709349
:1030300041058093420500E00093680604E2009396
:10304000690601E000936D06EF93FF93EEE1F1E373
:103050000E946035FF91EF91B0914005A09141052C
:10306000D09142050E9405350EE20E946635AD2FD3
:10307000BB27B0934005A0934105D093420500E0E3
:103080000093120600E0009313060AE00093140672
:103090001091400520914105309142054091120662
:1030A00050911306609114060E94083870934005F1
:1030B0008093410520924205B0914005A0914105C1
:1030C000D09142050E940535EF93FF93E8E2F1E3CA
:1030D0000E946035FF91EF910E94F3360027009324
:1030E000B10608952020202020202020202020200C
:1030F00020202020204D454E5500403A3D3C000008
:103100003A3F3E3C3B0053656C662D6C6576656CC2
:103110002069732000004F4E00004F464600426178
:1031200074746572793A2000205600004F4B2E00CF
:1031300053656E736F72206E6F742063616C696289
:103140007261746564004572726F723A206E6F200E
:10315000526F6C6C20696E7075742E004572726FC0
:10316000723A206E6F20506974636820696E7075C2
:1031700074004572726F723A206E6F205468726FDD
:1031800020696E7075742E004572726F723A206EEF
:103190006F2059617720696E7075742E200045721A
:1031A000726F723A206E6F2041555820696E7075AB
:1031B000742E20004572726F723A2053616E6974EA
:1031C0007920636865636B2E20002C3130314631E5
:1031D0005C31723188319E31B43100909906109083
:1031E000B00601200092A6060090A6061090A10647
:1031F00001200092A6060090A606109097060120D6
:103200000092A6060091A606002342F000E000937B
:103210005706009358060093590633C0309157065D
:103220004091580601E0400F0027301F30935706A9
:10323000409358060FE10093400500E400934105D8
:1032400000E0009342053091570640915806509196
:1032500059066091400570914105809142055817CB
:103260004707360771F400E00093570600935806AD
:10327000009359060027009397060FEF00939D06D1
:1032800008950091A10600234AF00091AE06003097
:1032900009F008950FEF009397060895009199069D
:1032A000002392F50EEF009340050CE000934105DA
:1032B00000E00093420530914F0540915005509138
:1032C0005105609140057091410580914205581764
:1032D00047073607ECF001E00093400504EF009348
:1032E000410500E00093420530914F0540915005A3
:1032F00050915105609140057091410580914205C2
:1033000058174707360724F400E000939A060895FB
:1033100000919A06039500939A0600919A060F3F32
:1033200009F077C0B0914F05A0915005D09151059B
:10333000BB2392F40091AE06003009F008950FEF20
:103340000093970601E000934E060CE200934F06AF
:1033500000E0009350060CC000270093970600E0A1
:1033600000934E0606E900934F0600E000935006D6
:103370000FEF0093AD060FEF00939D0603E000935F
:103380004B0600E200934C0600E000934D0600E07F
:1033900000935706009358060093590601E00093E6
:1033A000400504EF0093410500E000934205309191
:1033B0004605409147055091480560914005709140
:1033C000410580914205581747073607D4F40EEFA0
:1033D000009340050CE00093410500E00093420596
:1033E0003091460540914705509148056091400550
:1033F00070914105809142055817470736072CF018
:1034000008C00FEF0093A00604C000270093A00699
:1034100000C0089510E4A0E0B5E0E4E0F0E00E9410
:10342000F4370D9331961A95D1F7E4E4F0E00E9459
:10343000631D0091400500939405009141050093A0
:10344000950500914205009396050E94631D0E9418
:10345000731D0091400500939D0500914105009367
:103460009E050091420500939F050E94631D0E94E6
:103470004D1D009140050093A60500914105009364
:10348000A705009142050093A8050E94631D0E94B4
:10349000731D009140050093AF0500914105009315
:1034A000B005009142050093B1050E94631D009193
:1034B0004005009397050091410500939805009100
:1034C0004205009399050E94631D0E94731D00919F
:1034D00040050093A005009141050093A1050091CE
:1034E00042050093A2050E94631D0E944D1D00919C
:1034F00040050093A905009141050093AA0500919C
:1035000042050093AB050E94631D0E94731D00914C
:1035100040050093B205009141050093B305009169
:1035200042050093B4050E94631D0091400500937D
:103530009A050091410500939B0500914205009377
:103540009C050E94631D0E94731D0091400500931D
:10355000A305009141050093A40500914205009345
:10356000A5050E94631D0E944D1D0091400500931A
:10357000AC05009141050093AD0500914205009313
:10358000AE050E94631D0E94731D009140050093CB
:10359000B505009141050093B605009142050093E1
:1035A000B70518E0E0E0F5E00581889401FD089496
:1035B000A795889400FD0894B79538961A95A1F7B9
:1035C000A0939106B093920608E0009340050CEAA0
:1035D0000093410500E00093420500E00093A90636
:1035E000EF93FF9330914005409141055091420582
:1035F000E2EEF5E06091A90603E0609FE00DF11DA9
:10360000319341935193FF91EF910091A906039556
:103610000093A9060091A906083011F7EAE7F0E047
:103620000E94631D00E0009312060CE20093130653
:1036300006E6009314061091400520914105309153
:1036400042054091120650911306609114060E94A3
:1036500008387093B8058093B9052092BA05E4E85C
:10366000F0E00E94631D0E944D1D009140050093F3
:10367000BB05009141050093BC05009142050093F4
:10368000BD05E6E8F0E00E94631D0E944D1D00911B
:1036900040050093BE05009141050093BF050091D0
:1036A00042050093C005E8E8F0E00E94631D0E9417
:1036B0004D1D009140050093C10500914105009307
:1036C000C205009142050093C305EAE8F0E00E94BC
:1036D000631D0E944D1D009140050093C40500919B
:1036E00041050093C505009142050093C605E2E837
:1036F000F0E00E94631D00E00093120604E60093D0
:10370000130600E000931406309112064091130650
:1037100050911406609140057091410580914205D9
:10372000581B470B360B309348064093490650937D
:103730004A06609148067091490680914A0607E062
:103740006595779587950A95D9F7801F701F601F3B
:10375000609348067093490680934A06E2E7F0E0DA
:103760000E94631D0E944D1D0091400500931506A7
:10377000009141050093160600914205009317063B
:10378000E4E7F0E00E94631D00E0009312060AE007
:103790000093130600E00093140610914005209159
:1037A00041053091420540911206509113066091F7
:1037B00014060E9408387093180680931906209208
:1037C0001A06ECE7F0E00E94631D009140050093AB
:1037D0001B060091410500931C06009142050093D1
:1037E0001D06EEE7F0E00E94631D0E94731D00912C
:1037F000400500931E060091410500931F060091AD
:10380000420500932006E0E8F0E00E94631D00E01E
:103810000093120603E00093130609EB00931406CD
:1038200010914005209141053091420540911206CA
:1038300050911306609114060E9408387093210677
:103840008093220620922306E6E7F0E00E94631DA3
:1038500060914005709141058091420505E06595B4
:10386000779587950A95D9F7801F701F601F609321
:1038700040057093410580934205009140050093F7
:1038800051060091410500935206009142050093B4
:103890005306E8E7F0E00E94631D609140057091D7
:1038A00041058091420505E06595779587950A95D4
:1038B000D9F7801F701F601F60934005709341050A
:1038C0008093420500914005009354060091410504
:1038D000009355060091420500935606EDE5F0E091
:1038E0000E94E037B0935E05A0935F05D09360051A
:1038F0000E94E037B0936105A0936205D093630501
:103900000E94E037B0936405A0936505D0936605E7
:103910000E94E037B0937005A0937105D0937205B3
:103920000E94E037B0937305A0937405D09375059A
:103930000E94E037B0937605A0937705D093780581
:10394000E1E9F0E00E94F43700939E06E2E9F0E03E
:103950000E94F4370093A106E3E9F0E00E94F437F7
:1039600000939506E4E9F0E00E94F4370093B00676
:10397000E5E9F0E00E94F4370093B20601E000931D
:10398000940605E0009393060FEF00939D06002731
:103990000093B1060027009397060027009398062E
:1039A0000AEF0093900600E00093A40600E0009365
:1039B0002406009325060093260600E000932706C0
:1039C000009328060093290600E000934605009323
:1039D00047050093480500E00093490500934A0518
:1039E00000934B0500E000934F05009350050093B2
:1039F000510500E000934C0500934D0500934E05E2
:103A000000E000935205009353050093540500E035
:103A100000935706009358060093590603E000935D
:103A20007C050FEF00937D0500E000937E0500E02C
:103A300000934E0600934F060093500600E000935B
:103A40004B0600934C0600934D0600E000935D0684
:103A500000935E0600935F0600E00093600600930B
:103A600061060093620600270093AD0600270093CD
:103A7000AC0600E0009363060093640600936506BD
:103A8000E6E9F0E00E94F437002322F001E0009321
:103A9000AE0608950E94911D0895609140057091B1
:103AA00041058091420504E06595779587950A95D3
:103AB000D9F7801F701F601F609340057093410508
:103AC0008093420508950E94F4373196A02F0E94FA
:103AD000F4373196B02FDD27B0934005A093410510
:103AE000D0934205089500E00093120601E7009389
:103AF000130609EA00931406109140052091410530
:103B000030914205409112065091130660911406BF
:103B10000E94083870934005809341052092420529
:103B200008950E94483701E000936C0601E000937D
:103B30006D06B091B805A091B905D091BA05C0E065
:103B4000D0E0E8E7F3E00E94021F08F4C9C0B0919A
:103B50001B06A0911C06D0911D06C0E0D0E0E5EF49
:103B6000F1E00E94021F08F4BBC0B0911E06A091B4
:103B70001F06D0912006C0E0D0E0E3E5FDE00E9402
:103B8000021F08F4ADC0B0915E05A0915F05D09111
:103B90006005C4EFD1E0E6E7F2E00E94021F08F4FE
:103BA000BCC0B0916105A0916205D0916305C4EFDE
:103BB000D1E0E6E7F2E00E94021F08F4AEC0B09147
:103BC0006405A0916505D0916605C4EFD1E0E6E7F4
:103BD000F2E00E94021F08F4A0C0B0917005A0910D
:103BE0007105D0917205C2ECD1E0E2E5F3E00E94EC
:103BF000021F08F492C0B0917305A0917405D09192
:103C00007505C2ECD1E0E2E5F3E00E94021F08F482
:103C100084C0B0917605A0917705D0917805C2EC6B
:103C2000D1E0E2E5F3E00E94021F08F476C00E94B2
:103C30002F340E942F34B0915505A0915605D09194
:103C40005705C4E6D0E0E4E8F3E00E94021F08F460
:103C500081C0B0915805A0915905D0915A05C4E68C
:103C6000D0E0E4E8F3E00E94021F08F473C0B091D2
:103C70005B05A0915C05D0915D05C4E6D0E0E4E869
:103C8000F3E00E94021F08F465C0B0916705A0919F
:103C90006805D0916905C4E6D0E0E4E8F3E00E944D
:103CA000021F08F457C0B0916A05A0916B05D0912E
:103CB0006C05C4E6D0E0E4E8F3E00E94021F08F4DB
:103CC00049C0B0916D05A0916E05D0916F05C4E615
:103CD000D0E0E4E8F3E00E94021F08F43BC008953E
:103CE00000E0009368060FE000936906EF93FF93EE
:103CF000E8E1FEE30E946035FF91EF9100E0009360
:103D0000680608E100936906EF93FF93ECE2FEE397
:103D10000E946035FF91EF9139C000E00093680682
:103D20000FE000936906EF93FF93EEE6FEE30E9437
:103D30006035FF91EF9100E00093680608E1009381
:103D40006906EF93FF93E2E8FEE30E946035FF917E
:103D5000EF911CC000E0009368060FE00093690635
:103D6000EF93FF93E6E9FEE30E946035FF91EF9148
:103D700000E00093680608E100936906EF93FF9363
:103D8000E2E8FEE30E946035FF91EF9107E00093C7
:103D9000AE0600E00093680608E200936906EF9320
:103DA000FF93E2E4FEE30E946035FF91EF9103E2AE
:103DB0000093680601E000936906EF93FF93E6EA3B
:103DC000FEE30E946035FF91EF9100E000936806EA
:103DD00009E300936906EF93FF93E8E5FEE30E9491
:103DE0006035FF91EF910E94F336299AD7E2C0E047
:103DF0000E94A037DA95D9F729980E94BF37013081
:103E0000E1F70895AC17BD072CF0AE17BF0714F407
:103E100088940895089408954F6E65206F72206D00
:103E20006F72652073657474696E67006973206FC3
:103E300075747369646520697473206C696D697445
:103E40007300436865636B20796F757220736574C6
:103E500074696E67732E000020202020202020200F
:103E60002020202020434F4E54494E554500536595
:103E70006E736F722063616C6962726174696F6ED8
:103E8000000064617461206F7574206F66206C6936
:103E90006D6974732E0053656E736F722072617753
:103EA0002064617461005741524E494E4721000021
:103EB0000E94483701E000936C0601E000936D0614
:103EC00000E00093680600E000936906EF93FF931B
:103ED000E4E2F2E40E946035FF91EF91B0915E055B
:103EE000A0915F05D09160050E94053500E0009328
:103EF00068060090690608E0000E00926906EF93DC
:103F0000FF93E4E3F2E40E946035FF91EF91B091FA
:103F10006105A0916205D09163050E94053500E01E
:103F2000009368060090690608E0000E009269069A
:103F3000EF93FF93E4E4F2E40E946035FF91EF9188
:103F4000B0916405A0916505D09166050E94053584
:103F500000E0009368060090690608E0000E0092F9
:103F60006906EF93FF93E2E5F2E40E946035FF916A
:103F7000EF91B0917005A0917105D09172050E94EA
:103F8000053500E0009368060090690608E0000E21
:103F900000926906EF93FF93EEE5F2E40E9460352C
:103FA000FF91EF91B0917305A0917405D0917505C3
:103FB0000E94053500E0009368060090690608E05D
:103FC000000E00926906EF93FF93EAE6F2E40E9486
:103FD0006035FF91EF91B0917605A0917705D09172
:103FE00078050E94053500E0009368060090690698
:103FF00008E0000E00926906EF93FF93E6E7F2E413
:104000000E946035FF91EF91B091B805A091B9057C
:10401000D091BA050E94053500E000936806009033
:10402000690608E0000E00926906EF93FF93E4E84A
:10403000F2E40E946035FF91EF91B0912106A091CA
:104040002206D09123060E9405350E94F3360E9475
:10405000BF370E94483700E00093680600E00093F5
:104060006906EF93FF93E6E9F2E40E946035FF9161
:10407000EF9100E00093400504E60093410500E065
:104080000093420510914005209141053091420571
:10409000409148065091490660914A060E940838AE
:1040A000709340058093410520924205B0914005F0
:1040B000A0914105D09142050E94053500E0009392
:1040C00068060090690608E0000E00926906EF930A
:1040D000FF93E4EAF2E40E946035FF91EF91B09122
:1040E0004005A0914105D09142050E94053500E0B0
:1040F000009368060090690608E0000E00926906C9
:10410000EF93FF93EEEAF2E40E946035FF91EF91A6
:10411000B0914005A0914105D09142050E9405351E
:1041200000E0009368060090690608E0000E009227
:104130006906EF93FF93E8EBF2E40E946035FF918C
:10414000EF91B0914005A0914105D09142050E94A8
:10415000053500E0009368060090690608E0000E4F
:1041600000926906EF93FF93E2ECF2E40E9460355F
:10417000FF91EF91B0912406A0912506D0912606DB
:104180000E94053500E0009368060090690608E08B
:10419000000E00926906EF93FF93EEECF2E40E94AA
:1041A0006035FF91EF91B0912706A0912806D0913C
:1041B00029060E94053500E0009368060090690614
:1041C00008E0000E00926906EF93FF93ECEDF2E435
:1041D0000E946035FF91EF91B0917905A0917A0529
:1041E000D0917B050E94053500E0009368060090A1
:1041F000690608E0000E00926906EF93FF93ECEE6B
:10420000F2E40E946035FF91EF91B0914005A091DA
:104210004105D09142050E9405350E94F3360E9467
:10422000BF3708954779726F526F6C6C5A65726F21
:104230003A2000004779726F50697463685A65725A
:104240006F3A20004779726F5961775A65726F3AF9
:104250002000416363585A65726F3A200000416341
:1042600063595A65726F3A2000004163635A5A6578
:10427000726F3A2000004573634C6F774C696D692B
:10428000743A200042617474416C61726D566F6CB7
:10429000746167653A00536572766F46696C746540
:1042A000723A2000556E757365643A200000556EB1
:1042B000757365643A200000556E757365643A2025
:1042C0000000416E676C65526F6C6C3A2000416E65
:1042D000676C6550697463683A20000042617474C9
:1042E000657279566F6C746167653A00756E7573A7
:1042F00065640000112722270E94483701E00093DF
:104300006C0601E000936D0600E00093680601E092
:1043100000936906EF93FF93ECECF4E40E946035A0
:10432000FF91EF91A22FAA954AF4EF93FF93EAEF42
:10433000F4E40E946035FF91EF9113C0AA954AF40E
:10434000EF93FF93EAE0F5E40E946035FF91EF916F
:1043500008C0EF93FF93ECE1F5E40E946035FF9114
:10436000EF9100E0009368060EE000936906EF937A
:10437000FF93E2EDF4E40E946035FF91EF9130E0AD
:10438000DFD00E94053500E00093680600906906C2
:1043900009E0000E00926906EF93FF93ECEDF4E460
:1043A0000E946035FF91EF9131E0CAD00E9405353F
:1043B00000E000936806009069060BE0000E009292
:1043C0006906EF93FF93E6EEF4E40E946035FF91F7
:1043D000EF9132E0B5D00E94053500E00093680609
:1043E0000090690609E0000E00926906EF93FF93C2
:1043F000E0EFF4E40E946035FF91EF9133E0A0D04C
:104400000E94053500E00093680609E30093690601
:10441000EF93FF93EAE2F5E40E946035FF91EF919C
:10442000E8EBF4E404E0019FE00DF11D0591009339
:104430006806059100936906059100936A06049148
:1044400000936B0600E000936C060E947E340E948D
:10445000F3360E94BF37083009F40895043021F480
:104460001A950AF414E048CF023029F41395153058
:1044700009F410E041CF0130F1F4103029F4239514
:10448000233009F4222738CF312F3A9559D0C0E094
:10449000D0E0E0E0FDE70E94C122A02DB12D59D06F
:1044A000223049F00091950600232AF42F9301E071
:1044B00020274FD02F9120CF1D007F0A340D561694
:1044C0003416561F3421562A342A563341786973DC
:1044D0003A0050204761696E203A200050204C6914
:1044E0006D69743A200049204761696E203A2000C6
:1044F00049204C696D69743A2000526F6C6C202819
:1045000041696C65726F6E290000506974636820A0
:1045100028456C657661746F7229000059617720B7
:10452000285275646465722900004241434B205053
:10453000524556204E455854204348414E47450069
:1045400011D00E94F437A02F31960E94F437B02F7B
:10455000089508D00A2F0E94FC3731960B2F0E9435
:10456000FC370895E4E4F0E0022F000F000F000F85
:10457000E00F0027F01F032F000FE00F0027F01FB0
:1045800008952F923F924F925F926F927F928F92F7
:104590001F932F933F934F935F936F937F938F93CB
:1045A0009F93AF93BF93CF93DF93EF93FF9311E06C
:1045B00002E000936C0601E000936D0600E00093BA
:1045C000680608E3009369060FE700936A0600E4B3
:1045D00000936B060E947E3401E000936C0600E0BD
:1045E0000093680609E300936906EF93FF93E6E002
:1045F000F7E40E946035FF91EF910EE100936806A9
:1046000003E10093690602E600936A060AE200935A
:104610006B0602E000936C060E947E340EE100936C
:10462000680603E10093690602E600936A060AE25F
:1046300000936B0601E000936C060E94BA340FE110
:104640000093680604E10093690601E600936A0698
:1046500009E200936B060E94BA3402E200936806F6
:1046600008E10093690603E000936D060E9405359A
:104670000E94F3362EE10E94AE37003011F02A95E9
:10468000D1F7003009F411E00E94AE370030C9F3D1
:104690000E940604083019F4A0E0B0E0AECF043068
:1046A00061F4A11B0027B00BAC17BD070CF4DE01B1
:1046B00013951F3F08F01FEFA0CF023041F4A10F68
:1046C0000027B01FAE17BF070CF0DF01F1CF01309C
:1046D000C9F40A2E1B2EFF91EF91DF91CF91BF916C
:1046E000AF919F918F917F916F915F914F913F918A
:1046F0002F911F918F907F906F905F904F903F9080
:104700002F9008957ACF434C522020444F574E208B
:1047100020205550202020444F4E450010E02227F5
:104720000E94483701E000936C0601E000936D069B
:1047300006E60093680601E000936906EF93FF9395
:10474000EAEDF9E40E946035FF91EF91A22FA39565
:10475000BB270E94053500E00093680601E0009346
:104760006906EF93FF93EEE9F9E40E946035FF914B
:10477000EF9130E04FD162D10E94053500E0009307
:1047800068060090690609E0000E00926906EF9342
:10479000FF93EAEAF9E40E946035FF91EF9131E07E
:1047A00039D14CD10E94053500E000936806009095
:1047B000690609E0000E00926906EF93FF93E6EBAD
:1047C000F9E40E946035FF91EF9132E023D136D1B8
:1047D0000E94053500E0009368060090690609E034
:1047E000000E00926906EF93FF93E2ECF9E40E9459
:1047F0006035FF91EF9133E00DD120D10E94053556
:1048000000E0009368060090690609E0000E00923F
:104810006906EF93FF93EEECF9E40E946035FF9197
:10482000EF9134E0F7D00AD10E94053500E0009303
:1048300068060090690609E0000E00926906EF9391
:10484000FF93EEEDF9E40E946035FF91EF9135E0C2
:10485000E1D00F9300FF09C0EF93FF93E6E0FAE485
:104860000E946035FF91EF9108C0EF93FF93E0E065
:10487000FAE40E946035FF91EF9105E40093680629
:10488000EF93FF93E4EEF9E40E946035FF91EF911E
:104890000F9101FF09C0EF93FF93EAE0FAE40E9451
:1048A0006035FF91EF9108C0EF93FF93E0E1FAE4E8
:1048B0000E946035FF91EF9100E00093680609E3E4
:1048C00000936906EF93FF93EAEEF9E40E946035E6
:1048D000FF91EF91EEE7F9E404E0019FE00DF11D97
:1048E0000591009368060591009369060591009370
:1048F0006A06049100936B0600E000936C060E9428
:104900007E340E94F3360E94BF37083009F40895C0
:10491000043019F41A95177003CF023019F4139567
:104920001770FECE013051F5103019F42395277021
:10493000F7CE113078F0163068F4312F3A956AD0FE
:104940007DD0C1E8DFEFEFE7F0E00E94C122002D4B
:1049500064D0E6CE163041F435E05CD0A1E00A2701
:1049600000FD02605AD0DCCE173041F435E052D061
:10497000A2E00A2700FD026050D0D2CED1CE78004E
:104980007F0A3A0056093A0956123A12561B3A1B48
:1049900056243A24562D1D2D3C36632D7C36546802
:1049A000726F74746C653A20000041696C65726FB7
:1049B0006E203A200000456C657661746F723A2073
:1049C000000052756464657220203A2000004F6632
:1049D0006673657420203A20000043483A005479F9
:1049E00070653A00526174653A004241434B205071
:1049F000524556204E455854204348414E474500A5
:104A0000536572766F00455343004869676800003C
:104A10004C6F770007D00C94F4370F9303D00F91AD
:104A20000C94FC37E4E0F0E0022F000F000F000FC1
:104A3000E00F0027F01FE30FF01F0895A02FBB2702
:104A4000AA230AF4BFEF0895E0E0F5E0D6D0009184
:104A5000C7050093FA050091C8050093FB05009176
:104A6000C9050093FC05009140050093CA0500911B
:104A700041050093CB05009142050093CC05E8E089
:104A8000F5E0BBD00091C7050093FD050091C80576
:104A90000093FE050091C9050093FF0500914005B4
:104AA0000093CD05009141050093CE05009142058C
:104AB0000093CF05E0E1F5E0A0D00091C705009399
:104AC00000060091C805009301060091C9050093F6
:104AD0000206009140050093D00500914105009326
:104AE000D105009142050093D205E8E1F5E085D0BB
:104AF0000091C705009303060091C80500930406C2
:104B00000091C90500930506009140050093D30567
:104B1000009141050093D405009142050093D5050D
:104B2000E0E2F5E06AD00091C70500930606009127
:104B3000C805009307060091C90500930806009177
:104B400040050093D605009141050093D7050091DB
:104B500042050093D805E8E2F5E04FD00091C70583
:104B6000009309060091C80500930A060091C90543
:104B700000930B06009140050093D9050091410573
:104B80000093DA05009142050093DB05E0E3F5E0D0
:104B900034D00091C70500930C060091C80500931E
:104BA0000D060091C90500930E0600914005009383
:104BB000DC05009141050093DD050091420500935D
:104BC000DE05E8E3F5E019D00091C70500930F0674
:104BD0000091C805009310060091C90500931106C5
:104BE000009140050093DF05009141050093E00529
:104BF000009142050093E1050895DD27A481BB27BC
:104C0000AA2312F4DFEFBFEFB093C705A093C80546
:104C1000D093C90500E0009340050CE200934105E4
:104C200006E6009342051091C7052091C805309112
:104C3000C9054091400550914105609142050E948F
:104C400008387093C7058093C8052092C905B091B4
:104C5000C705A091C805D091C905008130914C05C8
:104C600040914D0550914E050E944E380181309182
:104C70007F0540918005509181050E944E38028148
:104C80003091820540918305509184050E944E38F1
:104C900003813091850540918605509187050E94DA
:104CA0004E38B0934005A0934105D0934205089536
:104CB0000E942F343091550540915605509157056B
:104CC00060915E0570915F0580916005581B470BF0
:104CD000360B309355054093560550935705309148
:104CE00058054091590550915A05609161057091A0
:104CF000620580916305581B470B360B30935805AE
:104D00004093590550935A0530915B0540915C05DD
:104D100050915D056091640570916505809166050F
:104D2000581B470B360B30935B0540935C05509343
:104D30005D05309167054091680550916905609166
:104D400070057091710580917205581B470B360BE9
:104D500030936705409368055093690530916A0563
:104D600040916B0550916C056091730570917405CD
:104D700080917505581B470B360B30936A0540939D
:104D80006B0550936C0530916D0540916E05509107
:104D90006F05609176057091770580917805581BB5
:104DA000470B360B30936D0540936E0550936F059E
:104DB00030916705409168055091690560915406EE
:104DC0007091550680915606580F471F361F309335
:104DD0006705409368055093690530916A054091D5
:104DE0006B0550916C05609151067091520680914F
:104DF0005306580F471F361F30936A0540936B05C3
:104E000050936C0500E0009340050AE000934105D3
:104E100000E00093420510916A0520916B053091E6
:104E20006C054091400550914105609142050E94FA
:104E3000083870932A0680932B0620922C06109136
:104E400067052091680530916905409140055091B2
:104E50004105609142050E94083870932D068093A9
:104E60002E0620922F06009199060023AAF400E056
:104E7000009388050093890500938A0500E000935C
:104E80008B0500938C0500938D0500E000938E0543
:104E900000938F050093900560914605709147053A
:104EA0008091480504E06595779587950A95D9F72F
:104EB000801F701F601F60934605709347058093A5
:104EC00048056091490570914A0580914B0504E0C1
:104ED0006595779587950A95D9F7801F701F601F94
:104EE0006093490570934A0580934B0560914F0587
:104EF000709150058091510504E0659577958795EF
:104F00000A95D9F7801F701F601F60934F0570933B
:104F10005005809351051091460520914705309129
:104F200048054091BB055091BC056091BD050E94AC
:104F300008387093460580934705209248051091E4
:104F4000490520914A0530914B054091BE0550918D
:104F5000BF056091C0050E94083870934905809391
:104F60004A0520924B0510914F0520915005309134
:104F700051054091C1055091C2056091C3050E9441
:104F8000083870934F058093500520925105109179
:104F90004C0520914D0530914E054091C40550912E
:104FA000C5056091C6050E94083870934C05809332
:104FB0004D0520924E0500919F0600230AF020C166
:104FC0006091460570914705809148055527442713
:104FD0003327581B470B360B309346054093470544
:104FE00050934805609146057091470580914805AA
:104FF00003E0880F771F661F0A95D9F7609346056F
:10500000709347058093480530912A0640912B06FE
:1050100050912C0660914605709147058091480596
:10502000581B470B360B30939105409392055093D4
:10503000930560919105709192058091930504E02C
:105040006595779587950A95D9F7801F701F601F22
:10505000609391057093920580939305109191054B
:1050600020919205309193054091150650911606B6
:10507000609117060E94083870933F06809340069F
:10508000209241060091180600933C0600911906F3
:1050900000933D0600911A0600933E06FBD2009154
:1050A0003F06009346050091400600934705009196
:1050B000410600934805609146057091470580912F
:1050C000480501E06595779587950A95D9F7801F82
:1050D000701F601F609346057093470580934805D5
:1050E0006091490570914A0580914B0555274427E9
:1050F0003327581B470B360B3093490540934A051D
:1051000050934B056091490570914A0580914B057C
:1051100003E0880F771F661F0A95D9F7609349054A
:1051200070934A0580934B0530912D0640912E06D1
:1051300050912F066091490570914A0580914B0569
:10514000581B470B360B30939105409392055093B3
:10515000930560919105709192058091930504E00B
:105160006595779587950A95D9F7801F701F601F01
:10517000609391057093920580939305109191052A
:105180002091920530919305409115065091160695
:10519000609117060E94083870933F06809340067E
:1051A000209241060091180600933C0600911906D2
:1051B00000933D0600911A0600933E066BD20091C3
:1051C0003F06009349050091400600934A0500916F
:1051D000410600934B056091490570914A05809105
:1051E0004B0501E06595779587950A95D9F7801F5E
:1051F000701F601F6093490570934A0580934B05AB
:1052000030915505409156055091570560914605DE
:105210007091470580914805581B470B360B30931A
:10522000910540939205509393056091910570917B
:1052300092058091930501E06595779587950A958C
:10524000D9F7801F701F601F6093910570939205BE
:1052500080939305109191052091920530919305CB
:105260004091940550919505609196050E940838EB
:1052700070933F06809340062092410600919D0561
:1052800000933C0600919E0500933D0600919F050A
:1052900000933E06FFD100913F0600937F050091E9
:1052A00040060093800500914106009381056091BE
:1052B0009105709192058091930503E0659577952E
:1052C00087950A95D9F7801F701F601F609391051D
:1052D000709392058093930510919105209192050A
:1052E000309193054091A6055091A7056091A805BE
:1052F0000E94083870934005809341052092420532
:10530000309188054091890550918A05609140054A
:105310007091410580914205580F471F361F309309
:105320003F0640934006509341060091AF0500931D
:105330003C060091B00500933D060091B105009335
:105340003E06A8D100913F060093880500914006D3
:10535000009389050091410600938A0530917F05ED
:105360004091800550918105609188057091890573
:1053700080918A05580F471F361F30937F05409351
:105380008005509381053091490540914A0550911F
:105390004B05609158057091590580915A05581B2D
:1053A000470B360B3093910540939205509393052C
:1053B00060919105709192058091930501E065954A
:1053C000779587950A95D9F7801F701F601F6093A6
:1053D000910570939205809393051091910520910A
:1053E00092053091930540919705509198056091F1
:1053F00099050E94083870933F06809340062092DA
:1054000041060091A00500933C060091A105009380
:105410003D060091A20500933E063CD100913F0657
:105420000093820500914006009383050091410698
:105430000093840560919105709192058091930588
:1054400003E06595779587950A95D9F7801F701FBA
:10545000601F60939105709392058093930510915E
:10546000910520919205309193054091A9055091A5
:10547000AA056091AB050E9408387093400580939F
:1054800041052092420530918B0540918C05509149
:105490008D05609140057091410580914205580F3E
:1054A000471F361F30933F064093400650934106F6
:1054B0000091B20500933C060091B30500933D06B0
:1054C0000091B40500933E06E5D000913F0600939D
:1054D0008B050091400600938C05009141060093D6
:1054E0008D0530918205409183055091840560912E
:1054F0008B0570918C0580918D05580F471F361FC5
:1055000030938205409383055093840530914F0575
:10551000409150055091510560915B0570915C057B
:1055200080915D05581B470B360B309391054093D6
:105530009205509393056091910570919205809129
:10554000930501E06595779587950A95D9F7801FB2
:10555000701F601F6093910570939205809393056F
:1055600010919105209192053091930540919A05F3
:1055700050919B0560919C050E94083870933F06EE
:1055800080934006209241060091A30500933C06BB
:105590000091A40500933D060091A50500933E06E9
:1055A00079D000913F060093850500914006009355
:1055B00086050091410600938705609191057091E1
:1055C00092058091930503E06595779587950A95F7
:1055D000D9F7801F701F601F60939105709392052B
:1055E0008093930510919105209192053091930538
:1055F0004091AC055091AD056091AE050E94083810
:1056000070934005809341052092420530918E05AC
:1056100040918F0550919005609140057091410532
:1056200080914205580F471F361F30933F06409325
:105630004006509341060091B50500933C06009149
:10564000B60500933D060091B70500933E0622D0B3
:1056500000913F0600938E050091400600938F0550
:105660000091410600939005309185054091860593
:105670005091870560918E0570918F0580919005FE
:10568000580F471F361F309385054093860550936A
:105690008705089530913F0640914006509141069C
:1056A00060913C0670913D0680913E065817470771
:1056B000360764F000913C0600933F0600913D06DA
:1056C0000093400600913E060093410660913C061F
:1056D00070913D0680913E06552744273327581B7D
:1056E000470B360B30933C0640933D0650933E06E5
:1056F00030913F06409140065091410660913C0632
:1057000070913D0680913E0658174707360764F4AE
:1057100000913C0600933F0600913D060093400631
:1057200000913E06009341060895F894A0918400EC
:10573000B0918500789402EEA00F04E0B01FF894B9
:10574000B0938900A0938800789404ECA00F09E03E
:10575000B01FF894B0938B00A0938A00789406E071
:1057600000936F000027009396060895DFB690918E
:10577000B106992332F10894909194069A9519F400
:10578000909193068894909394069FEF10F49091D3
:105790009106969508F4469A969508F4449A96953B
:1057A00008F4429A969508F4439A969508F4419A1B
:1057B000969508F4409A969508F4459A969508F4BB
:1057C000479ADFBE18959FEF90939606189503E0D1
:1057D0000093400508E70093410500E0009342056F
:1057E0003091B8054091B9055091BA0560914005D6
:1057F000709141058091420558174707360764F0BC
:10580000009140050093B805009141050093B9054A
:10581000009142050093BA0500E00093A9060091AB
:1058200092060093AA060090970600940092AB0699
:105830000090AB061090990601280092AB06EF93FA
:10584000FF93EAECF5E06091A90603E0609FE00DAC
:10585000F11D319141915191309345064093460697
:1058600050934706FF91EF910091AA060695009389
:10587000AA0608F484C00091AB0600230AF469C0AC
:10588000EF93FF93E2EEF5E06091A90603E0609FDD
:10589000E00DF11D319141915191309340054093BC
:1058A000410550934205FF91EF913091450640919B
:1058B00046065091470660914005709141058091E0
:1058C0004205581B470B360B3093910540939205C8
:1058D0005093930510919105209192053091930575
:1058E000409148065091490660914A060E94083846
:1058F0007093910580939205209293053091400515
:105900004091410550914205609191057091920539
:1059100080919305580F471F361F309345064093DB
:10592000460650934706EF93FF933091450640910A
:10593000460650914706E2EEF5E06091A90603E0C5
:10594000609FE00DF11D319341935193FF91EF91D1
:105950003EC0EF93FF93EAEFF5E06091A90603E004
:10596000609FE00DF11D31914191519130934506B9
:105970004093460650934706FF91EF9128C000914F
:10598000AB060023EAF0309145064091460650915F
:1059900047066091B8057091B9058091BA0558170E
:1059A0004707360764F40091B80500934506009157
:1059B000B905009346060091BA050093470607C053
:1059C00000E0009345060093460600934706EF93D8
:1059D000FF93309145064091460650914706EAEC08
:1059E000F5E06091A90603E0609FE00DF11D3193A1
:1059F00041935193FF91EF910091A9060395009374
:105A0000A9060091A906083009F019CFB091CA057E
:105A1000A091CB05D091CC0572D00A2E1B2EB0914F
:105A2000CD05A091CE05D091CF0569D02A2E3B2E71
:105A3000B091D005A091D105D091D20560D04A2E69
:105A40005B2EB091D305A091D405D091D50557D048
:105A50006A2E7B2EB091D605A091D705D091D8059E
:105A60004ED08A2E1B2FB091D905A091DA05D09186
:105A7000DB0545D02A2F3B2FB091DC05A091DD0539
:105A8000D091DE053CD04A2F5B2FB091DF05A0916D
:105A9000E005D091E10533D06A2F7B2F0091960667
:105AA000002312F400E00895009196060023E2F727
:105AB000A1E0B0E0C0E3D2E00A1A1B0A08F446985D
:105AC0002A1A3B0A08F444984A1A5B0A08F44298D6
:105AD0006A1A7B0A08F443988A1A1B0B08F4419847
